:100000000C949B000C94C3000C94C3000C94C3008C
:100010000C94C3000C94C3000C94C3000C94C30054
:100020000C94C3000C94C3000C94C3000C943204D1
:100030000C94C3000C94C3000C94C3000C94C30034
:100040000C94E8030C94C3000C943C020C94FC0048
:100050000C94C3000C94C3000C94C3000C94C30014
:100060000C9496040C94C300100A270A220A270A4B
:100070001C0A270A160A270A270A270A270A270A14
:10008000270A270A270AB609C209CE09DA09E609AA
:10009000F209FE090A0A270A270A270A270A270A55
:1000A000270A270A270A270A270A270A270A270AC8
:1000B000270A270A270A270A270A270A270A270AB8
:1000C000270A270A270AB009BC09C809D409E00988
:1000D000EC09F809040A5A0A350A580A5C0A5A0A4D
:1000E0005C0A670A00000008000201000003040720
:1000F00000000000000000000000000025002800B3
:100100002B0000000000240027002A00040404043F
:1001100004040404020202020202030303030303B1
:10012000010204081020408001020408102001028E
:1001300004081020480D11241FBECFEFD8E0DEBF09
:10014000CDBF23E0A0E8B1E001C01D92A933B20702
:10015000E1F711E0A0E0B1E0E6E1FEE102C00590C8
:100160000D92A038B107D9F710E0CBE9D0E004C078
:100170002197FE010E94840DCA39D107C9F70E9458
:10018000A7070C94090F0C940000CF92DF92EF9216
:10019000FF920F931F93CF93DF936C017A018B0132
:1001A000C0E0D0E0CE15DF0589F0D8016D918D015A
:1001B000D601ED91FC910190F081E02DC6010995E9
:1001C000892B11F47E0102C02196ECCFC701DF918B
:1001D000CF911F910F91FF90EF90DF90CF900895F6
:1001E0008FE892E00E94440121E0892B09F420E08D
:1001F000822F08950E94E20E1F920F920FB60F9267
:1002000011242F933F934F935F936F937F938F931B
:100210009F93AF93BF93EF93FF938FE892E00E9479
:100220006E02FF91EF91BF91AF919F918F917F915E
:100230006F915F914F913F912F910F900FBE0F9053
:100240001F901895FC01918D828D981761F0828D19
:10025000DF01A80FB11D5D968C91928D9F5F9F73FA
:10026000928F90E008958FEF9FEF0895FC01918D9C
:10027000828D981731F0828DE80FF11D858D90E009
:1002800008958FEF9FEF0895FC01918D228D892FA6
:1002900090E0805C9F4F821B91098F73992708958E
:1002A00080E090E0892B29F00E94F00081110C94ED
:1002B000000008953FB7F894809140029091410268
:1002C000A0914202B091430226B5A89B05C02F3FE2
:1002D00019F00196A11DB11D3FBFBA2FA92F982F6C
:1002E0008827820F911DA11DB11DBC01CD0142E0E7
:1002F000660F771F881F991F4A95D1F7089585EDDE
:100300008093BC008091BC0084FDFCCF10926A02F7
:1003100008954091F101262F30E0240F311D213244
:100320003105DCF420916A022430C9F4FC0180E03C
:1003300090E0861758F43091F1012191DC01A1532E
:10034000BE4FA30FB11D2C930196F3CF8091F10105
:10035000680F6093F10180E0089581E0089582E0E4
:1003600008950895E091810180918001E81730F4AB
:10037000F0E0EE57FE4F808190E008958FEF9FEF01
:1003800008959091810180918001981750F4E92F90
:10039000F0E0EE57FE4F208130E09F5F90938101A7
:1003A00002C02FEF3FEFC90108958091800190E0D6
:1003B00020918101821B91090895CF92DF92EF92E3
:1003C000FF920F931F93CF93DF937C01262F972FDC
:1003D0008A0180916B02882391F0C62FD72F6E017E
:1003E000C40ED51ECC15DD0571F06991D701ED91D4
:1003F000FC910190F081E02DC7010995F3CF642FA6
:10040000822F0E948901C801DF91CF911F910F9126
:10041000FF90EF90DF90CF900895CF93DF931F92DE
:10042000CDB7DEB7698320916B022223D1F02091F2
:100430008E02203240F021E030E0FC013383228341
:1004400080E090E015C080916C02E82FF0E0E35965
:10045000FD4F998190838F5F80936C0280938E0211
:1004600005C061E0CE0101960E94890181E090E023
:100470000F90DF91CF9108951F920F920FB60F92B8
:1004800011242F938F939F93EF93FF93E0919F02FB
:10049000F091A0028081E091A502F091A60282FD78
:1004A00012C090818091A8028F5F8F732091A90262
:1004B000821751F0E091A802F0E0E157FD4F958FCF
:1004C0008093A80201C08081FF91EF919F918F914D
:1004D0002F910F900FBE0F901F901895FC01848DE7
:1004E000DF01A80FB11DA35ABF4F2C91848D90E05E
:1004F00001968F739927848FA689B7892C93A08939
:10050000B1898C9180648C93938D848D981306C0EF
:100510000288F389E02D80818F7D80830895EF929A
:10052000FF920F931F93CF93DF93EC0181E0888FAD
:100530009B8D8C8D981305C0E889F989808185FD94
:1005400024C0F62E0B8D10E00F5F1F4F0F73112785
:10055000E02E8C8DE8120CC00FB607FCFACFE889AC
:10056000F989808185FFF5CFCE010E946E02F1CF1F
:100570008B8DFE01E80FF11DE35AFF4FF0820B8FC8
:10058000EA89FB898081806207C0EE89FF896083E8
:10059000E889F98980818064808381E090E0DF913F
:1005A000CF911F910F91FF90EF900895CF93DF931C
:1005B000EC01888D8823C9F0EA89FB89808185FD5B
:1005C00005C0A889B9898C9186FD0FC00FB607FCBC
:1005D000F5CF808185FFF2CFA889B9898C9185FFFD
:1005E000EDCFCE010E946E02E7CFDF91CF9108954B
:1005F00090E0FC01EC51FF4F3491FC01E05EFE4FB6
:100600002491FC01E45FFE4FE491EE2309F43BC02A
:10061000332339F1333091F038F43130A9F03230EE
:1006200001F584B58F7D12C0373091F03830A1F0DC
:100630003430B9F4809180008F7D03C080918000B8
:100640008F77809380000DC084B58F7784BD09C0FB
:100650008091B0008F7703C08091B0008F7D809330
:10066000B000F0E0EE0FFF1FE850FF4FA591B491EE
:100670008FB7F894EC91611103C020952E2301C02F
:100680002E2B2C938FBF08951F93CF93DF93182F9A
:10069000EB010E948807209711F460E004C0CF3F6F
:1006A000D10539F461E0812FDF91CF911F910C9436
:1006B000F802E12FF0E0EC51FF4FE491E330F9F064
:1006C00048F4E130B9F0E230A1F584B5806284BD30
:1006D000C8BD34C0E730E9F0E83019F1E43049F53D
:1006E00080918000806280938000D0938B00C093C3
:1006F0008A0024C084B5806884BDC7BD1FC08091B6
:100700008000806880938000D0938900C093880027
:1007100015C08091B00080688093B000C093B30092
:100720000DC08091B00080628093B000C093B4008F
:1007300005C0C038D1050CF0B5CFAFCFDF91CF9158
:100740001F9108958F929F92AF92BF92CF92DF92A6
:10075000EF92FF926B017C010E945A014B015C01F8
:10076000C114D104E104F104F1F00E945A01DC014A
:10077000CB0188199909AA09BB09883E9340A105B4
:10078000B10570F321E0C21AD108E108F10888EE42
:10079000880E83E0981EA11CB11CC114D104E10491
:1007A000F10419F7DDCFFF90EF90DF90CF90BF906D
:1007B000AF909F908F9008952FB7F89460913C026E
:1007C00070913D0280913E0290913F022FBF0895AB
:1007D0001F920F920FB60F9211242F933F938F9376
:1007E0009F93AF93BF9380913C0290913D02A09163
:1007F0003E02B0913F0230913B0223E0230F2D37A0
:1008000020F40196A11DB11D05C026E8230F029614
:10081000A11DB11D20933B0280933C0290933D02A9
:10082000A0933E02B0933F0280914002909141021A
:10083000A0914202B09143020196A11DB11D809387
:10084000400290934102A0934202B0934302BF91B1
:10085000AF919F918F913F912F910F900FBE0F906D
:100860001F9018951F920F920FB60F9211242F937D
:100870003F938F939F93EF93FF9380913A0287FF6B
:1008800005C0109285001092840005C080913A0244
:1008900087FD80913A0280913A028F5F80933A02FD
:1008A00080913A0287FF20C080913A028C30E4F4B4
:1008B000209184003091850080913A02082E000C2E
:1008C000990BFC01EE0FFF1F8E0F9F1FFC01EA5ECC
:1008D000FD4F81819281820F931F909389008093B5
:1008E000880080913A0217C0809184009091850021
:1008F000049680349C4918F480E49CE905C08091FA
:1009000084009091850004969093890080938800DC
:100910008FEF80933A02FF91EF919F918F913F91DA
:100920002F910F900FBE0F901F9018951F920F924E
:100930000FB60F9211242F933F934F935F936F93B2
:100940007F938F939F93AF93BF93EF93FF93809188
:10095000B900887F803609F49CC068F5883209F4B4
:100960005BC090F4803109F454C038F4882309F452
:10097000F6C0883009F44DC0F6C0883109F44CC087
:10098000803209F45DC0EFC0803409F468C048F4D7
:10099000803309F455C0883309F0E5C080936802BC
:1009A000D8C0803509F44FC0883509F45DC088345B
:1009B00009F0D9C0D6C0883909F4C7C0A8F488376F
:1009C00009F467C038F4883609F463C0803709F445
:1009D00060C0C9C0883809F4B8C0803909F45FC064
:1009E000803809F0C0C05BC0803B09F486C038F491
:1009F000803A09F466C0883A09F47FC0B4C0803CEC
:100A000009F4A7C0883C09F4A4C0883B09F48AC053
:100A1000AAC08091450210C0909167028091660241
:100A2000981770F5E091670281E08E0F809367025E
:100A3000F0E0EA5BFD4F80818093BB0085EC86C0CF
:100A4000809368028EC0E091670281E08E0F8093F0
:100A500067028091BB00F0E0EA5BFD4F80839091DC
:100A60006702809166026EC0E091670281E08E0F9E
:100A7000809367028091BB00F0E0EA5BFD4F8083CA
:100A80008091690281116DC081E08093440284EA03
:100A900061C083E080936A0210921502CFCF8091EB
:100AA0001502803208F051C0E091150281E08E0FEE
:100AB000809315028091BB00F0E0EB50FE4F8083E5
:100AC000BDCF85EC8093BC0010926A028091150224
:100AD000803230F4E0911502F0E0EB50FE4F1082CE
:100AE0006091150270E0E091F301F091F40185EF5F
:100AF00091E009951092150236C084E080936A0255
:100B00001092F2011092F101E091EF01F091F001E9
:100B100009958091F101811105C081E08093F10177
:100B20001092CF01E091F20181E08E0F8093F201EB
:100B3000F0E0E153FE4F80818093BB009091F20181
:100B40008091F101981708F479CF85E88093BC0073
:100B50000AC085EC8093BC0010926A0204C0109217
:100B600068020E947F01FF91EF91BF91AF919F9129
:100B70008F917F916F915F914F913F912F910F9046
:100B80000FBE0F901F9018958F929F92AF92BF92B9
:100B9000CF92DF92EF92FF92CF936B017C01C42F33
:100BA00020E030E040E05FE30E948B0D4B015C01F0
:100BB0006093CB017093CC018093CD019093CE01D3
:100BC000A5019401C701B6010E94F70D87FF12C06D
:100BD000C701B6010E94FC0D8C2F0E94E00620E0A8
:100BE00030E040E05FE3C701B6010E948B0D6B016E
:100BF0007C01E6CFCF91FF90EF90DF90CF90BF9038
:100C0000AF909F908F9008958F929F92AF92BF92D6
:100C1000CF92DF92EF92FF92CF936B017C01C42FB2
:100C200020E030E040E05FE30E948A0D4B015C0170
:100C30006093CB017093CC018093CD019093CE0152
:100C4000A5019401C701B6010E94DD0E181694F4A7
:100C5000C701B6010E94FC0D8C2F0E94E00620E027
:100C600030E040E05FE3C701B6010E948A0D6B01EE
:100C70007C01E6CFCF91FF90EF90DF90CF90BF90B7
:100C8000AF909F908F900895FF920F931F93CF93F3
:100C9000DF93EC01F62E8C010F5F1F4F1093CA01FA
:100CA0000093C901C017D10730F4BE018F2D0E94F7
:100CB000E0062196F7CFDF91CF911F910F91FF9022
:100CC0000895FF920F931F93CF93DF93EC01F62EBD
:100CD0008C01015011091093CA010093C9010C172E
:100CE0001D0730F4BE018F2D0E94E0062197F7CF3B
:100CF000DF91CF911F910F91FF900895682F8CE2A3
:100D000093E00C940D02382F20918E0290918D0269
:100D1000213208F049C080916A028111FCCF42E083
:100D200040936A02309369023FEF30936802109259
:100D3000670220936602ADE6B2E046E452E0FA01B3
:100D40003E2F341B321718F43D913193F9CF109296
:100D5000450220914502990F922B90934502909164
:100D60004402913061F410924402909145029093B4
:100D7000BB009091BC0093FDF8CF95EC01C095EEBF
:100D80009093BC0090916A029230E1F390916802D6
:100D90009F3F79F080916802803241F08091680233
:100DA000803331F084E005C081E003C082E001C0FF
:100DB00083E010926C0210928E0210926B020895E2
:100DC000CF93DF93D62FC72F9091380321E0209344
:100DD0006B0290938D0210926C0210928E0224E0AE
:100DE000829FC0011124BC016A5F7F4F8CE293E0B7
:100DF0000E940D0280E090E00E947E0680E090E07C
:100E00000E947E068D2F9C2F0E947E068C2F90E0E4
:100E10000E947E0681E0DF91CF910C948306CF93F0
:100E2000C62F9091380321E020936B0290938D029E
:100E300010926C0210928E02682F8CE293E00E9456
:100E40000D026C2F8CE293E00E940D0281E0CF91A5
:100E50000C948306009769F0FC0101900020E9F7EB
:100E60003197AF01481B590BBC018FE892E00C94FD
:100E7000C50080E090E008958F929F92AF92BF925C
:100E80000F931F93CF93DF93CDB7DEB7A1970FB624
:100E9000F894DEBF0FBECDBF19A2423008F44AE07D
:100EA0008E010F5D1F4F842E912CA12CB12CA5011A
:100EB00094010E94E70EE62FB901CA010150110901
:100EC000EA3014F4E05D01C0E95CD801EC93232B17
:100ED000242B252B61F7C8010E942A07A1960FB683
:100EE000F894DEBF0FBECDBFDF91CF911F910F9160
:100EF000BF90AF909F908F900895E0918F02F091F6
:100F000090020190F081E02D682F8FE892E0099423
:100F100090E0FC01E05EFE4F2491FC01E45FFE4F97
:100F20008491882399F090E0880F991FFC01EE5F6F
:100F3000FE4FA591B491FC01E850FF4F859194912B
:100F40008FB7F894EC91E22BEC938FBF08957894CF
:100F500084B5826084BD84B5816084BD85B58260BE
:100F600085BD85B5816085BD80916E00816080936F
:100F70006E001092810080918100826080938100D8
:100F800080918100816080938100809180008160E8
:100F9000809380008091B10084608093B100809143
:100FA000B00081608093B00080917A00846080936B
:100FB0007A0080917A00826080937A0080917A0032
:100FC000816080937A0080917A00806880937A00B3
:100FD0001092C100E0919F02F091A00282E0808314
:100FE000E0919B02F0919C021082E0919D02F091B1
:100FF0009E028FEC80831092A702E091A302F091F1
:10100000A40286E08083E091A102F091A202808197
:1010100080618083E091A102F091A20280818860CA
:101020008083E091A102F091A20280818068808398
:10103000E091A102F091A20280818F7D80838BE3F9
:1010400091E00E942A0782E591E00E942A0710920F
:1010500081011092800110926C0210928E02109207
:101060006A02C1E0C09369021092440261E082E129
:101070000E94F80261E083E10E94F8028091B900C9
:101080008E7F8093B9008091B9008D7F8093B900E5
:1010900088E48093B80085E48093BC0060E080E041
:1010A0000E940F0785E591E00E942A074AE060E769
:1010B00070E080E090E00E943C078BE691E00E94A7
:1010C0002A074AE060E070E0CB010E943C074AE05A
:1010D00063E070E080E090E00E943C0782E591E0F0
:1010E0000E942A078DE691E00E942A074AE060E705
:1010F00070E080E090E00E943C0782E591E00E9471
:101100002A0780913803C0936B0280938D0210925E
:101110006C0210928E0260E08CE293E00E940D025D
:1011200081E00E9483068091380390916A029111B8
:10113000FCCF91E090936A02909369022FEF209385
:101140006802109267021092660290934502909195
:101150004502880F892B809345028091440281309B
:1011600061F410924402809145028093BB0080910B
:10117000BC0083FDF8CF85EC01C085EE8093BC00F8
:1011800080916A028130E1F380916702811103C08E
:101190008091670201C081E0A6E4B2E022E831E07C
:1011A000F9019E2F921B981718F49D919193F9CFF6
:1011B00010928101809380018CE293E00E94C10132
:1011C000C82F682F6F76606180E00E940F0760E78C
:1011D0008EEF0E940F076C2F80E00E940F0765E0E2
:1011E00070E080E090E00E94A2036C2F616A80E0D2
:1011F0000E940F0767E771E080E00E94E00667E762
:1012000071E081E00E94E00667E771E082E00E9401
:10121000E00667E771E083E00E94E00667E771E0BF
:1012200084E00E94E00667E771E085E00E94E00646
:1012300067E771E086E00E94E00667E771E087E01B
:101240000E94E00688E00E94880789E00E948807E3
:1012500087E00E94880786E00E94880760E088E0B7
:101260000E94F80260E070E089E00E94440360E0C0
:1012700087E00E94F80260E070E086E00E9444038C
:101280006AE070E080E090E00E94A20382E0E82E35
:10129000F12CC1E0D0E095E0C92ED12C24E0A22EA3
:1012A000B12C11E037E0832E912C1092AA011092FC
:1012B000A9011092AC011092AB011092AE011092F4
:1012C000AD011092B0011092AF011092B2011092D4
:1012D000B1011092B4011092B3011092B6011092B4
:1012E000B5011092B8011092B7011092BA01109294
:1012F000B9011092BC011092BB011092BE01109274
:10130000BD011092C0011092BF011092C201109253
:10131000C1011092C4011092C3011092C601109233
:10132000C5011092C8011092C7018FE892E00E9497
:101330004401892B09F48DC08FE892E00E942201BC
:10134000482F082E000C550B660B770BFA01F2970D
:10135000E733F10508F07BC0EC5CFF4F0C94840D83
:10136000D093AA01C093A90181E671C0D093AC01CA
:10137000C093AB0181E46BC0D093AE01C093AD01CB
:1013800082E665C0D093B001C093AF0182E45FC034
:10139000D093B201C093B10183E659C0D093B40198
:1013A000C093B30183E453C0D093B601C093B50199
:1013B00084E64DC0D093B801C093B70184E447C020
:1013C000D093BA01C093B90185E641C0D093BC0166
:1013D000C093BB0185E43BC0D093BE01C093BD0167
:1013E00086E635C0D093C001C093BF0186E42FC00C
:1013F000D093C201C093C10187E629C0D093C40134
:10140000C093C30187E423C0D093C601C093C50134
:1014100088E61DC0D093C801C093C70188E417C0F7
:10142000B0920201A092010182E311C0D0920201A8
:10143000C092010188E30BC0D0930201C093010167
:1014400086E305C0F0920201E092010184E30E946C
:101450007D07E0910101F0910201E730F10508F00C
:1014600054C0E559FF4F0C94840D61E088E00E9460
:10147000F80260E570E089E00E94440361E087E0E3
:101480000E94F80260E570E086E00E944403109339
:10149000A801D093A701C093A6010E94DC0360932A
:1014A000A2017093A3018093A4019093A5012DC084
:1014B00060E003C060E0DACF61E088E00E94F802FB
:1014C00060E570E089E00E94440360E0D8CF60E00E
:1014D00088E00E94F80260E070E089E00E94440326
:1014E00060E087E00E94F80260E070E086E00E9421
:1014F00044031092A2011092A3011092A401109231
:10150000A5011092A801109300019092020180920F
:1015100001010E94DC034090A2015090A301609061
:10152000A4017090A501DC01CB0184199509A609DD
:10153000B709823D9105A105B105C8F10E94DC0300
:101540006093A2017093A3018093A4019093A501DD
:101550008091A801882389F0109200018091A60152
:101560009091A701009721F41092A8011093000117
:1015700001979093A7018093A60180910001882391
:10158000B1F01092A7011092A60160E088E00E94DD
:10159000F80260E070E089E00E94440360E087E0C8
:1015A0000E94F80260E070E086E00E9444038091AF
:1015B000A9019091AA010197F9F46090150170902A
:1015C000160182E7681682E07806B0F460E070E009
:1015D000C3010E944406B30180E090E00E942B0EFC
:1015E00020E030E040E050E40E948B0D0E94FC0DB2
:1015F00070931601609315018091AB019091AC013D
:101600000197F1F460901501709016018DE768164E
:101610007104B0F060E070E0C3010E946106B301A4
:1016200080E090E00E942B0E20E030E040E050E4AB
:101630000E948A0D0E94FC0D7093160160931501A3
:101640008091AD019091AE01019741F5409011015B
:1016500050901201609013017090140120E030E46A
:101660004CE154E4C301B2010E94F70D1816B4F026
:1016700041E050E0C301B2010E94C40520E030E027
:1016800040E050E4C301B2010E948B0D6093110150
:101690007093120180931301909314018091AF0114
:1016A0009091B001019741F54090110150901201C5
:1016B000609013017090140120E030E04AEF52E492
:1016C000C301B2010E94DD0E87FD16C041E050E06B
:1016D000C301B2010E94040620E030E040E050E483
:1016E000C301B2010E948A0D60931101709312012F
:1016F00080931301909314018091B1019091B201F4
:10170000019741F540900D0150900E0160900F013E
:101710007090100120E030E44CE154E4C301B201C8
:101720000E94F70D1816B4F042E050E0C301B20178
:101730000E94040620E030E040E050E4C301B20122
:101740000E948B0D60930D0170930E0180930F0129
:10175000909310018091B3019091B401019741F5EC
:1017600040900D0150900E0160900F01709010019B
:1017700020E030E04AEF52E4C301B2010E94DD0EE6
:1017800087FD16C042E050E0C301B2010E94C405CB
:1017900020E030E040E050E4C301B2010E948A0D35
:1017A00060930D0170930E0180930F0190931001CF
:1017B0008091B5019091B6010197F9F460900B0109
:1017C00070900C0182E7681682E07806B0F463E05E
:1017D00070E0C3010E944406B30180E090E00E94E3
:1017E0002B0E20E030E040E050E40E948B0D0E9480
:1017F000FC0D70930C0160930B018091B7019091E7
:10180000B8010197F1F460900B0170900C018DE725
:1018100068167104B0F063E070E0C3010E946106D5
:10182000B30180E090E00E942B0E20E030E040E029
:1018300050E40E948A0D0E94FC0D70930C0160938D
:101840000B018091B9019091BA010197F9F4609070
:10185000090170900A0182E7681682E07806B0F408
:1018600064E070E0C3010E944406B30180E090E0B0
:101870000E942B0E20E030E040E050E40E948B0DEF
:101880000E94FC0D70930A01609309018091BB01D5
:101890009091BC010197F1F46090090170900A01E8
:1018A0008DE768167104B0F064E070E0C3010E9437
:1018B0006106B30180E090E00E942B0E20E030E052
:1018C00040E050E40E948A0D0E94FC0D70930A01D2
:1018D000609309018091BD019091BE010197F9F4D7
:1018E000609007017090080182E7681682E0780630
:1018F000B0F465E070E0C3010E944406B30180E0EB
:1019000090E00E942B0E20E030E040E050E40E9486
:101910008B0D0E94FC0D709308016093070180916C
:10192000BF019091C0010197F1F4609007017090A0
:1019300008018DE768167104B0F065E070E0C3013E
:101940000E946106B30180E090E00E942B0E20E02F
:1019500030E040E050E40E948A0D0E94FC0D70933C
:101960000801609307018091C1019091C201019724
:10197000F9F4609005017090060182E7681682E034
:101980007806B0F466E070E0C3010E944406B3013B
:1019900080E090E00E942B0E20E030E040E050E438
:1019A0000E948B0D0E94FC0D70930601609305014F
:1019B0008091C3019091C4010197F1F460900501F9
:1019C000709006018DE768167104B0F066E070E073
:1019D000C3010E946106B30180E090E00E942B0EDB
:1019E00020E030E040E050E40E948A0D0E94FC0DAF
:1019F00070930601609305018091C5019091C60125
:101A00000197F9F4609003017090040182E7681671
:101A100082E07806B0F467E070E0C3010E944406FB
:101A2000B30180E090E00E942B0E20E030E040E027
:101A300050E40E948B0D0E94FC0D70930401609392
:101A400003018091C7019091C8010197F1F4609062
:101A50000301709004018DE768167104B0F067E02F
:101A600070E0C3010E946106B30180E090E00E9433
:101A70002B0E20E030E040E050E40E948A0D0E94EE
:101A8000FC0D70930401609303010E9450010DCC82
:101A9000EFE8F2E01382128288EE93E0A0E0B0E07B
:101AA00084839583A683B7832FE131E0318320833C
:101AB00025EC30E03587248724EC30E03787268713
:101AC00020EC30E0318B208B21EC30E0338B228B0B
:101AD00022EC30E0358B248B26EC30E0378B268BE4
:101AE000118E128E138E148EECE2F3E013821282AA
:101AF00084839583A683B7838FE291E0918380836B
:101B000080E4809338030895EE0FFF1F0590F49151
:101B1000E02D09945058BB27AA270E94A20D0C94CF
:101B2000A30E0E94950E38F00E949C0E20F039F40E
:101B30009F3F19F426F40C94920E0EF4E095E7FB07
:101B40000C948C0EE92F0E94B40E58F3BA1762075A
:101B500073078407950720F079F4A6F50C94D60E48
:101B60000EF4E0950B2EBA2FA02D0B01B9019001B8
:101B70000C01CA01A0011124FF27591B99F0593FFC
:101B800050F4503E68F11A16F040A22F232F342F44
:101B90004427585FF3CF469537952795A795F04092
:101BA0005395C9F77EF41F16BA0B620B730B840BA7
:101BB000BAF09150A1F0FF0FBB1F661F771F881F5F
:101BC000C2F70EC0BA0F621F731F841F48F48795B7
:101BD00077956795B795F7959E3F08F0B0CF9395A9
:101BE000880F08F09927EE0F9795879508950E9422
:101BF000680E08F481E008950E94BC0E88F09F579B
:101C000098F0B92F9927B751B0F0E1F0660F771F20
:101C1000881F991F1AF0BA95C9F714C0B13091F016
:101C20000E94D60EB1E008950C94D60E672F782F3F
:101C30008827B85F39F0B93FCCF3869577956795DB
:101C4000B395D9F73EF490958095709561957F4F47
:101C50008F4F9F4F0895E89409C097FB3EF49095ED
:101C60008095709561957F4F8F4F9F4F9923A9F075
:101C7000F92F96E9BB279395F69587957795679504
:101C8000B795F111F8CFFAF4BB0F11F460FF1BC048
:101C90006F5F7F4F8F4F9F4F16C0882311F096E9DB
:101CA00011C0772321F09EE8872F762F05C0662389
:101CB00071F096E8862F70E060E02AF09A95660F42
:101CC000771F881FDAF7880F9695879597F90895FB
:101CD000990F0008550FAA0BE0E8FEEF161617063D
:101CE000E807F907C0F012161306E407F50798F0A5
:101CF000621B730B840B950B39F40A2661F0232BBE
:101D0000242B252B21F408950A2609F4A140A69539
:101D10008FEF811D811D089597F99F6780E870E01E
:101D200060E008959FEF80EC089500240A94161651
:101D3000170618060906089500240A9412161306B9
:101D4000140605060895092E0394000C11F4882347
:101D500052F0BB0F40F4BF2B11F460FF04C06F5F63
:101D60007F4F8F4F9F4F089557FD9058440F551F39
:101D700059F05F3F71F04795880F97FB991F61F00D
:101D80009F3F79F087950895121613061406551F84
:101D9000F2CF4695F1DF08C0161617061806991FF0
:101DA000F1CF86957105610508940895E894BB27E5
:101DB00066277727CB0197F908950E94680E08F4EB
:101DC0008FEF089581E090E0F8940C94090FA1E260
:101DD0001A2EAA1BBB1BFD010DC0AA1FBB1FEE1FA5
:101DE000FF1FA217B307E407F50720F0A21BB30BF0
:101DF000E40BF50B661F771F881F991F1A9469F76C
:101E000060957095809590959B01AC01BD01CF01C7
:061E10000895F894FFCFD5
:101E1600010700770177017701770177010080BB21
:101E2600430080BB43770101000000000000008FE3
:101E360002C500440122013601D602000000000D51
:101E460002DD01D501C101B201B10131362063685D
:101E5600616E6E656C20536572766F20746573745F
:101E660021000D0A00457374696D61746564207004
:101E760072652D7363616C653A20002E0046696EAB
:101E8600616C207072652D7363616C653A20000089
:00000001FF
